{
  "_format": "hh-sol-artifact-1",
  "contractName": "UndoForest",
  "sourceName": "contracts/UndoContract.sol",
  "abi": [
    {
      "inputs": [],
      "stateMutability": "nonpayable",
      "type": "constructor"
    },
    {
      "anonymous": false,
      "inputs": [
        {
          "indexed": true,
          "internalType": "address",
          "name": "owner",
          "type": "address"
        },
        {
          "indexed": true,
          "internalType": "address",
          "name": "approved",
          "type": "address"
        },
        {
          "indexed": true,
          "internalType": "uint256",
          "name": "tokenId",
          "type": "uint256"
        }
      ],
      "name": "Approval",
      "type": "event"
    },
    {
      "anonymous": false,
      "inputs": [
        {
          "indexed": true,
          "internalType": "address",
          "name": "owner",
          "type": "address"
        },
        {
          "indexed": true,
          "internalType": "address",
          "name": "operator",
          "type": "address"
        },
        {
          "indexed": false,
          "internalType": "bool",
          "name": "approved",
          "type": "bool"
        }
      ],
      "name": "ApprovalForAll",
      "type": "event"
    },
    {
      "anonymous": false,
      "inputs": [
        {
          "indexed": true,
          "internalType": "uint256",
          "name": "tokenId",
          "type": "uint256"
        },
        {
          "indexed": false,
          "internalType": "address",
          "name": "seller",
          "type": "address"
        },
        {
          "indexed": false,
          "internalType": "address",
          "name": "owner",
          "type": "address"
        },
        {
          "indexed": false,
          "internalType": "uint256",
          "name": "price",
          "type": "uint256"
        },
        {
          "indexed": false,
          "internalType": "bool",
          "name": "recycled",
          "type": "bool"
        }
      ],
      "name": "MarketItemCreated",
      "type": "event"
    },
    {
      "anonymous": false,
      "inputs": [
        {
          "indexed": true,
          "internalType": "address",
          "name": "from",
          "type": "address"
        },
        {
          "indexed": true,
          "internalType": "address",
          "name": "to",
          "type": "address"
        },
        {
          "indexed": true,
          "internalType": "uint256",
          "name": "tokenId",
          "type": "uint256"
        }
      ],
      "name": "Transfer",
      "type": "event"
    },
    {
      "inputs": [
        {
          "internalType": "address",
          "name": "to",
          "type": "address"
        },
        {
          "internalType": "uint256",
          "name": "tokenId",
          "type": "uint256"
        }
      ],
      "name": "approve",
      "outputs": [],
      "stateMutability": "nonpayable",
      "type": "function"
    },
    {
      "inputs": [
        {
          "internalType": "address",
          "name": "owner",
          "type": "address"
        }
      ],
      "name": "balanceOf",
      "outputs": [
        {
          "internalType": "uint256",
          "name": "",
          "type": "uint256"
        }
      ],
      "stateMutability": "view",
      "type": "function"
    },
    {
      "inputs": [
        {
          "internalType": "uint256",
          "name": "tokenId",
          "type": "uint256"
        }
      ],
      "name": "createMarketSale",
      "outputs": [],
      "stateMutability": "payable",
      "type": "function"
    },
    {
      "inputs": [
        {
          "internalType": "string",
          "name": "tokenURI",
          "type": "string"
        },
        {
          "internalType": "uint256",
          "name": "price",
          "type": "uint256"
        }
      ],
      "name": "createToken",
      "outputs": [
        {
          "internalType": "uint256",
          "name": "",
          "type": "uint256"
        }
      ],
      "stateMutability": "payable",
      "type": "function"
    },
    {
      "inputs": [],
      "name": "fetchItemsListed",
      "outputs": [
        {
          "components": [
            {
              "internalType": "uint256",
              "name": "tokenId",
              "type": "uint256"
            },
            {
              "internalType": "address payable",
              "name": "seller",
              "type": "address"
            },
            {
              "internalType": "address payable",
              "name": "owner",
              "type": "address"
            },
            {
              "internalType": "uint256",
              "name": "price",
              "type": "uint256"
            },
            {
              "internalType": "bool",
              "name": "recycled",
              "type": "bool"
            }
          ],
          "internalType": "struct UndoForest.MarketItem[]",
          "name": "",
          "type": "tuple[]"
        }
      ],
      "stateMutability": "view",
      "type": "function"
    },
    {
      "inputs": [],
      "name": "fetchMarketItems",
      "outputs": [
        {
          "components": [
            {
              "internalType": "uint256",
              "name": "tokenId",
              "type": "uint256"
            },
            {
              "internalType": "address payable",
              "name": "seller",
              "type": "address"
            },
            {
              "internalType": "address payable",
              "name": "owner",
              "type": "address"
            },
            {
              "internalType": "uint256",
              "name": "price",
              "type": "uint256"
            },
            {
              "internalType": "bool",
              "name": "recycled",
              "type": "bool"
            }
          ],
          "internalType": "struct UndoForest.MarketItem[]",
          "name": "",
          "type": "tuple[]"
        }
      ],
      "stateMutability": "view",
      "type": "function"
    },
    {
      "inputs": [],
      "name": "fetchMyNFTs",
      "outputs": [
        {
          "components": [
            {
              "internalType": "uint256",
              "name": "tokenId",
              "type": "uint256"
            },
            {
              "internalType": "address payable",
              "name": "seller",
              "type": "address"
            },
            {
              "internalType": "address payable",
              "name": "owner",
              "type": "address"
            },
            {
              "internalType": "uint256",
              "name": "price",
              "type": "uint256"
            },
            {
              "internalType": "bool",
              "name": "recycled",
              "type": "bool"
            }
          ],
          "internalType": "struct UndoForest.MarketItem[]",
          "name": "",
          "type": "tuple[]"
        }
      ],
      "stateMutability": "view",
      "type": "function"
    },
    {
      "inputs": [
        {
          "internalType": "uint256",
          "name": "tokenId",
          "type": "uint256"
        }
      ],
      "name": "getApproved",
      "outputs": [
        {
          "internalType": "address",
          "name": "",
          "type": "address"
        }
      ],
      "stateMutability": "view",
      "type": "function"
    },
    {
      "inputs": [
        {
          "internalType": "address",
          "name": "owner",
          "type": "address"
        },
        {
          "internalType": "address",
          "name": "operator",
          "type": "address"
        }
      ],
      "name": "isApprovedForAll",
      "outputs": [
        {
          "internalType": "bool",
          "name": "",
          "type": "bool"
        }
      ],
      "stateMutability": "view",
      "type": "function"
    },
    {
      "inputs": [],
      "name": "name",
      "outputs": [
        {
          "internalType": "string",
          "name": "",
          "type": "string"
        }
      ],
      "stateMutability": "view",
      "type": "function"
    },
    {
      "inputs": [
        {
          "internalType": "uint256",
          "name": "tokenId",
          "type": "uint256"
        }
      ],
      "name": "ownerOf",
      "outputs": [
        {
          "internalType": "address",
          "name": "",
          "type": "address"
        }
      ],
      "stateMutability": "view",
      "type": "function"
    },
    {
      "inputs": [
        {
          "internalType": "address",
          "name": "from",
          "type": "address"
        },
        {
          "internalType": "address",
          "name": "to",
          "type": "address"
        },
        {
          "internalType": "uint256",
          "name": "tokenId",
          "type": "uint256"
        }
      ],
      "name": "safeTransferFrom",
      "outputs": [],
      "stateMutability": "nonpayable",
      "type": "function"
    },
    {
      "inputs": [
        {
          "internalType": "address",
          "name": "from",
          "type": "address"
        },
        {
          "internalType": "address",
          "name": "to",
          "type": "address"
        },
        {
          "internalType": "uint256",
          "name": "tokenId",
          "type": "uint256"
        },
        {
          "internalType": "bytes",
          "name": "_data",
          "type": "bytes"
        }
      ],
      "name": "safeTransferFrom",
      "outputs": [],
      "stateMutability": "nonpayable",
      "type": "function"
    },
    {
      "inputs": [
        {
          "internalType": "address",
          "name": "operator",
          "type": "address"
        },
        {
          "internalType": "bool",
          "name": "approved",
          "type": "bool"
        }
      ],
      "name": "setApprovalForAll",
      "outputs": [],
      "stateMutability": "nonpayable",
      "type": "function"
    },
    {
      "inputs": [
        {
          "internalType": "bytes4",
          "name": "interfaceId",
          "type": "bytes4"
        }
      ],
      "name": "supportsInterface",
      "outputs": [
        {
          "internalType": "bool",
          "name": "",
          "type": "bool"
        }
      ],
      "stateMutability": "view",
      "type": "function"
    },
    {
      "inputs": [],
      "name": "symbol",
      "outputs": [
        {
          "internalType": "string",
          "name": "",
          "type": "string"
        }
      ],
      "stateMutability": "view",
      "type": "function"
    },
    {
      "inputs": [
        {
          "internalType": "uint256",
          "name": "tokenId",
          "type": "uint256"
        }
      ],
      "name": "tokenURI",
      "outputs": [
        {
          "internalType": "string",
          "name": "",
          "type": "string"
        }
      ],
      "stateMutability": "view",
      "type": "function"
    },
    {
      "inputs": [
        {
          "internalType": "address",
          "name": "from",
          "type": "address"
        },
        {
          "internalType": "address",
          "name": "to",
          "type": "address"
        },
        {
          "internalType": "uint256",
          "name": "tokenId",
          "type": "uint256"
        }
      ],
      "name": "transferFrom",
      "outputs": [],
      "stateMutability": "nonpayable",
      "type": "function"
    }
  ],
  "bytecode": "0x60806040523480156200001157600080fd5b5060405180604001604052806009815260200168149958de58db185b9d60ba1b815250604051806040016040528060048152602001635245435960e01b815250816000908162000062919062000131565b50600162000071828262000131565b5050600980546001600160a01b0319163317905550620001fd565b634e487b7160e01b600052604160045260246000fd5b600181811c90821680620000b757607f821691505b602082108103620000d857634e487b7160e01b600052602260045260246000fd5b50919050565b601f8211156200012c57600081815260208120601f850160051c81016020861015620001075750805b601f850160051c820191505b81811015620001285782815560010162000113565b5050505b505050565b81516001600160401b038111156200014d576200014d6200008c565b62000165816200015e8454620000a2565b84620000de565b602080601f8311600181146200019d5760008415620001845750858301515b600019600386901b1c1916600185901b17855562000128565b600085815260208120601f198616915b82811015620001ce57888601518255948401946001909101908401620001ad565b5085821015620001ed5787850151600019600388901b60f8161c191681555b5050505050600190811b01905550565b61202b806200020d6000396000f3fe6080604052600436106101095760003560e01c80636352211e11610095578063a22cb46511610064578063a22cb465146102c1578063b88d4fde146102e1578063be9af53614610301578063c87b56dd14610314578063e985e9c51461033457600080fd5b80636352211e1461024b57806370a082311461026b57806372b3b6201461029957806395d89b41146102ac57600080fd5b80630f08efe0116100dc5780630f08efe0146101bf578063202e3740146101e157806323b872dd146101f657806342842e0e1461021657806345f8fa801461023657600080fd5b806301ffc9a71461010e57806306fdde0314610143578063081812fc14610165578063095ea7b31461019d575b600080fd5b34801561011a57600080fd5b5061012e610129366004611956565b61037d565b60405190151581526020015b60405180910390f35b34801561014f57600080fd5b506101586103cf565b60405161013a91906119c3565b34801561017157600080fd5b506101856101803660046119d6565b610461565b6040516001600160a01b03909116815260200161013a565b3480156101a957600080fd5b506101bd6101b8366004611a0b565b6104ee565b005b3480156101cb57600080fd5b506101d4610603565b60405161013a9190611a35565b3480156101ed57600080fd5b506101d461079a565b34801561020257600080fd5b506101bd610211366004611ab1565b61096e565b34801561022257600080fd5b506101bd610231366004611ab1565b61099f565b34801561024257600080fd5b506101d46109ba565b34801561025757600080fd5b506101856102663660046119d6565b610b8e565b34801561027757600080fd5b5061028b610286366004611aed565b610c05565b60405190815260200161013a565b61028b6102a7366004611b94565b610c8c565b3480156102b857600080fd5b50610158610cce565b3480156102cd57600080fd5b506101bd6102dc366004611bed565b610cdd565b3480156102ed57600080fd5b506101bd6102fc366004611c29565b610cec565b6101bd61030f3660046119d6565b610d24565b34801561032057600080fd5b5061015861032f3660046119d6565b610e41565b34801561034057600080fd5b5061012e61034f366004611ca5565b6001600160a01b03918216600090815260056020908152604080832093909416825291909152205460ff1690565b60006001600160e01b031982166380ac58cd60e01b14806103ae57506001600160e01b03198216635b5e139f60e01b145b806103c957506301ffc9a760e01b6001600160e01b03198316145b92915050565b6060600080546103de90611cd8565b80601f016020809104026020016040519081016040528092919081815260200182805461040a90611cd8565b80156104575780601f1061042c57610100808354040283529160200191610457565b820191906000526020600020905b81548152906001019060200180831161043a57829003601f168201915b5050505050905090565b600061046c82610fb7565b6104d25760405162461bcd60e51b815260206004820152602c60248201527f4552433732313a20617070726f76656420717565727920666f72206e6f6e657860448201526b34b9ba32b73a103a37b5b2b760a11b60648201526084015b60405180910390fd5b506000908152600460205260409020546001600160a01b031690565b60006104f982610b8e565b9050806001600160a01b0316836001600160a01b0316036105665760405162461bcd60e51b815260206004820152602160248201527f4552433732313a20617070726f76616c20746f2063757272656e74206f776e656044820152603960f91b60648201526084016104c9565b336001600160a01b03821614806105825750610582813361034f565b6105f45760405162461bcd60e51b815260206004820152603860248201527f4552433732313a20617070726f76652063616c6c6572206973206e6f74206f7760448201527f6e6572206e6f7220617070726f76656420666f7220616c6c000000000000000060648201526084016104c9565b6105fe8383610fd4565b505050565b6060600061061060075490565b9050600061061d60085490565b60075461062a9190611d28565b90506000808267ffffffffffffffff81111561064857610648611b08565b6040519080825280602002602001820160405280156106a157816020015b6040805160a0810182526000808252602080830182905292820181905260608201819052608082015282526000199092019101816106665790505b50905060005b848110156107915730600a60006106bf846001611d3b565b81526020810191909152604001600020600201546001600160a01b03160361077f5760006106ee826001611d3b565b6000818152600a6020908152604091829020825160a0810184528154815260018201546001600160a01b039081169382019390935260028201549092169282019290925260038201546060820152600482015460ff16151560808201528551929350909185908790811061076457610764611d4e565b602090810291909101015261077a600186611d3b565b945050505b8061078981611d64565b9150506106a7565b50949350505050565b606060006107a760075490565b905060008060005b838110156108095733600a60006107c7846001611d3b565b81526020810191909152604001600020600201546001600160a01b0316036107f7576107f4600184611d3b565b92505b8061080181611d64565b9150506107af565b5060008267ffffffffffffffff81111561082557610825611b08565b60405190808252806020026020018201604052801561087e57816020015b6040805160a0810182526000808252602080830182905292820181905260608201819052608082015282526000199092019101816108435790505b50905060005b848110156107915733600a600061089c846001611d3b565b81526020810191909152604001600020600201546001600160a01b03160361095c5760006108cb826001611d3b565b6000818152600a6020908152604091829020825160a0810184528154815260018201546001600160a01b039081169382019390935260028201549092169282019290925260038201546060820152600482015460ff16151560808201528551929350909185908790811061094157610941611d4e565b6020908102919091010152610957600186611d3b565b945050505b8061096681611d64565b915050610884565b6109783382611042565b6109945760405162461bcd60e51b81526004016104c990611d7d565b6105fe83838361112b565b6105fe83838360405180602001604052806000815250610cec565b606060006109c760075490565b905060008060005b83811015610a295733600a60006109e7846001611d3b565b81526020810191909152604001600020600101546001600160a01b031603610a1757610a14600184611d3b565b92505b80610a2181611d64565b9150506109cf565b5060008267ffffffffffffffff811115610a4557610a45611b08565b604051908082528060200260200182016040528015610a9e57816020015b6040805160a081018252600080825260208083018290529282018190526060820181905260808201528252600019909201910181610a635790505b50905060005b848110156107915733600a6000610abc846001611d3b565b81526020810191909152604001600020600101546001600160a01b031603610b7c576000610aeb826001611d3b565b6000818152600a6020908152604091829020825160a0810184528154815260018201546001600160a01b039081169382019390935260028201549092169282019290925260038201546060820152600482015460ff161515608082015285519293509091859087908110610b6157610b61611d4e565b6020908102919091010152610b77600186611d3b565b945050505b80610b8681611d64565b915050610aa4565b6000818152600260205260408120546001600160a01b0316806103c95760405162461bcd60e51b815260206004820152602960248201527f4552433732313a206f776e657220717565727920666f72206e6f6e657869737460448201526832b73a103a37b5b2b760b91b60648201526084016104c9565b60006001600160a01b038216610c705760405162461bcd60e51b815260206004820152602a60248201527f4552433732313a2062616c616e636520717565727920666f7220746865207a65604482015269726f206164647265737360b01b60648201526084016104c9565b506001600160a01b031660009081526003602052604090205490565b6000610c9c600780546001019055565b6000610ca760075490565b9050610cb333826112c7565b610cbd81856113fa565b610cc7818461147e565b9392505050565b6060600180546103de90611cd8565b610ce8338383611563565b5050565b610cf63383611042565b610d125760405162461bcd60e51b81526004016104c990611d7d565b610d1e84848484611631565b50505050565b6000818152600a6020526040902060038101546001909101546001600160a01b0316348214610dbd576040805162461bcd60e51b81526020600482015260248101919091527f506c65617365207375626d6974207468652061736b696e67207072696365206960448201527f6e206f7264657220746f20636f6d706c6574652074686520707572636861736560648201526084016104c9565b6000838152600a602052604090206002810180546001600160a01b0319908116331790915560048201805460ff1916600190811790915590910180549091169055610e0c600880546001019055565b6040516001600160a01b038216903480156108fc02916000818181858888f19350505050158015610d1e573d6000803e3d6000fd5b6060610e4c82610fb7565b610eb25760405162461bcd60e51b815260206004820152603160248201527f45524337323155524953746f726167653a2055524920717565727920666f72206044820152703737b732bc34b9ba32b73a103a37b5b2b760791b60648201526084016104c9565b60008281526006602052604081208054610ecb90611cd8565b80601f0160208091040260200160405190810160405280929190818152602001828054610ef790611cd8565b8015610f445780601f10610f1957610100808354040283529160200191610f44565b820191906000526020600020905b815481529060010190602001808311610f2757829003601f168201915b505050505090506000610f6260408051602081019091526000815290565b90508051600003610f74575092915050565b815115610fa6578082604051602001610f8e929190611dce565b60405160208183030381529060405292505050919050565b610faf84611664565b949350505050565b6000908152600260205260409020546001600160a01b0316151590565b600081815260046020526040902080546001600160a01b0319166001600160a01b038416908117909155819061100982610b8e565b6001600160a01b03167f8c5be1e5ebec7d5bd14f71427d1e84f3dd0314c0f7b2291e5b200ac8c7c3b92560405160405180910390a45050565b600061104d82610fb7565b6110ae5760405162461bcd60e51b815260206004820152602c60248201527f4552433732313a206f70657261746f7220717565727920666f72206e6f6e657860448201526b34b9ba32b73a103a37b5b2b760a11b60648201526084016104c9565b60006110b983610b8e565b9050806001600160a01b0316846001600160a01b0316148061110057506001600160a01b0380821660009081526005602090815260408083209388168352929052205460ff165b80610faf5750836001600160a01b031661111984610461565b6001600160a01b031614949350505050565b826001600160a01b031661113e82610b8e565b6001600160a01b0316146111a25760405162461bcd60e51b815260206004820152602560248201527f4552433732313a207472616e736665722066726f6d20696e636f72726563742060448201526437bbb732b960d91b60648201526084016104c9565b6001600160a01b0382166112045760405162461bcd60e51b8152602060048201526024808201527f4552433732313a207472616e7366657220746f20746865207a65726f206164646044820152637265737360e01b60648201526084016104c9565b61120f600082610fd4565b6001600160a01b0383166000908152600360205260408120805460019290611238908490611d28565b90915550506001600160a01b0382166000908152600360205260408120805460019290611266908490611d3b565b909155505060008181526002602052604080822080546001600160a01b0319166001600160a01b0386811691821790925591518493918716917fddf252ad1be2c89b69c2b068fc378daa952ba7f163c4a11628f55a4df523b3ef91a4505050565b6001600160a01b03821661131d5760405162461bcd60e51b815260206004820181905260248201527f4552433732313a206d696e7420746f20746865207a65726f206164647265737360448201526064016104c9565b61132681610fb7565b156113735760405162461bcd60e51b815260206004820152601c60248201527f4552433732313a20746f6b656e20616c7265616479206d696e7465640000000060448201526064016104c9565b6001600160a01b038216600090815260036020526040812080546001929061139c908490611d3b565b909155505060008181526002602052604080822080546001600160a01b0319166001600160a01b03861690811790915590518392907fddf252ad1be2c89b69c2b068fc378daa952ba7f163c4a11628f55a4df523b3ef908290a45050565b61140382610fb7565b6114665760405162461bcd60e51b815260206004820152602e60248201527f45524337323155524953746f726167653a2055524920736574206f66206e6f6e60448201526d32bc34b9ba32b73a103a37b5b2b760911b60648201526084016104c9565b60008281526006602052604090206105fe8282611e4b565b6040805160a08101825283815233602080830182815230848601818152606086018881526000608088018181528b8252600a909652979097209551865591516001860180546001600160a01b03199081166001600160a01b0393841617909155925160028701805490941691161790915593516003840155516004909201805460ff191692151592909217909155611516918461112b565b604080513381523060208201529081018290526000606082015282907fb640004f1d14576d0c209e240cad0410e0d8c0c33a09375861fbadae2588a98d9060800160405180910390a25050565b816001600160a01b0316836001600160a01b0316036115c45760405162461bcd60e51b815260206004820152601960248201527f4552433732313a20617070726f766520746f2063616c6c65720000000000000060448201526064016104c9565b6001600160a01b03838116600081815260056020908152604080832094871680845294825291829020805460ff191686151590811790915591519182527f17307eab39ab6107e8899845ad3d59bd9653f200f220920489ca2b5937696c31910160405180910390a3505050565b61163c84848461112b565b6116488484848461173b565b610d1e5760405162461bcd60e51b81526004016104c990611f0b565b606061166f82610fb7565b6116d35760405162461bcd60e51b815260206004820152602f60248201527f4552433732314d657461646174613a2055524920717565727920666f72206e6f60448201526e3732bc34b9ba32b73a103a37b5b2b760891b60648201526084016104c9565b60006116ea60408051602081019091526000815290565b9050600081511161170a5760405180602001604052806000815250610cc7565b806117148461183c565b604051602001611725929190611dce565b6040516020818303038152906040529392505050565b60006001600160a01b0384163b1561183157604051630a85bd0160e11b81526001600160a01b0385169063150b7a029061177f903390899088908890600401611f5d565b6020604051808303816000875af19250505080156117ba575060408051601f3d908101601f191682019092526117b791810190611f9a565b60015b611817573d8080156117e8576040519150601f19603f3d011682016040523d82523d6000602084013e6117ed565b606091505b50805160000361180f5760405162461bcd60e51b81526004016104c990611f0b565b805181602001fd5b6001600160e01b031916630a85bd0160e11b149050610faf565b506001949350505050565b6060816000036118635750506040805180820190915260018152600360fc1b602082015290565b8160005b811561188d578061187781611d64565b91506118869050600a83611fcd565b9150611867565b60008167ffffffffffffffff8111156118a8576118a8611b08565b6040519080825280601f01601f1916602001820160405280156118d2576020820181803683370190505b5090505b8415610faf576118e7600183611d28565b91506118f4600a86611fe1565b6118ff906030611d3b565b60f81b81838151811061191457611914611d4e565b60200101906001600160f81b031916908160001a905350611936600a86611fcd565b94506118d6565b6001600160e01b03198116811461195357600080fd5b50565b60006020828403121561196857600080fd5b8135610cc78161193d565b60005b8381101561198e578181015183820152602001611976565b50506000910152565b600081518084526119af816020860160208601611973565b601f01601f19169290920160200192915050565b602081526000610cc76020830184611997565b6000602082840312156119e857600080fd5b5035919050565b80356001600160a01b0381168114611a0657600080fd5b919050565b60008060408385031215611a1e57600080fd5b611a27836119ef565b946020939093013593505050565b602080825282518282018190526000919060409081850190868401855b82811015611aa457815180518552868101516001600160a01b03908116888701528682015116868601526060808201519086015260809081015115159085015260a09093019290850190600101611a52565b5091979650505050505050565b600080600060608486031215611ac657600080fd5b611acf846119ef565b9250611add602085016119ef565b9150604084013590509250925092565b600060208284031215611aff57600080fd5b610cc7826119ef565b634e487b7160e01b600052604160045260246000fd5b600067ffffffffffffffff80841115611b3957611b39611b08565b604051601f8501601f19908116603f01168101908282118183101715611b6157611b61611b08565b81604052809350858152868686011115611b7a57600080fd5b858560208301376000602087830101525050509392505050565b60008060408385031215611ba757600080fd5b823567ffffffffffffffff811115611bbe57600080fd5b8301601f81018513611bcf57600080fd5b611bde85823560208401611b1e565b95602094909401359450505050565b60008060408385031215611c0057600080fd5b611c09836119ef565b915060208301358015158114611c1e57600080fd5b809150509250929050565b60008060008060808587031215611c3f57600080fd5b611c48856119ef565b9350611c56602086016119ef565b925060408501359150606085013567ffffffffffffffff811115611c7957600080fd5b8501601f81018713611c8a57600080fd5b611c9987823560208401611b1e565b91505092959194509250565b60008060408385031215611cb857600080fd5b611cc1836119ef565b9150611ccf602084016119ef565b90509250929050565b600181811c90821680611cec57607f821691505b602082108103611d0c57634e487b7160e01b600052602260045260246000fd5b50919050565b634e487b7160e01b600052601160045260246000fd5b818103818111156103c9576103c9611d12565b808201808211156103c9576103c9611d12565b634e487b7160e01b600052603260045260246000fd5b600060018201611d7657611d76611d12565b5060010190565b60208082526031908201527f4552433732313a207472616e736665722063616c6c6572206973206e6f74206f6040820152701ddb995c881b9bdc88185c1c1c9bdd9959607a1b606082015260800190565b60008351611de0818460208801611973565b835190830190611df4818360208801611973565b01949350505050565b601f8211156105fe57600081815260208120601f850160051c81016020861015611e245750805b601f850160051c820191505b81811015611e4357828155600101611e30565b505050505050565b815167ffffffffffffffff811115611e6557611e65611b08565b611e7981611e738454611cd8565b84611dfd565b602080601f831160018114611eae5760008415611e965750858301515b600019600386901b1c1916600185901b178555611e43565b600085815260208120601f198616915b82811015611edd57888601518255948401946001909101908401611ebe565b5085821015611efb5787850151600019600388901b60f8161c191681555b5050505050600190811b01905550565b60208082526032908201527f4552433732313a207472616e7366657220746f206e6f6e20455243373231526560408201527131b2b4bb32b91034b6b83632b6b2b73a32b960711b606082015260800190565b6001600160a01b0385811682528416602082015260408101839052608060608201819052600090611f9090830184611997565b9695505050505050565b600060208284031215611fac57600080fd5b8151610cc78161193d565b634e487b7160e01b600052601260045260246000fd5b600082611fdc57611fdc611fb7565b500490565b600082611ff057611ff0611fb7565b50069056fea26469706673582212203f7addfb935f5a8970b2ad2d83019b955cb691f8a4f50b4eac96df1ca15da27364736f6c63430008110033",
  "linkReferences": {},
  "deployedLinkReferences": {}
}