{
  "_format": "hh-sol-artifact-1",
  "contractName": "Waste",
  "sourceName": "contracts/WasteMarketplace.sol",
  "abi": [
    {
      "inputs": [],
      "stateMutability": "nonpayable",
      "type": "constructor"
    },
    {
      "anonymous": false,
      "inputs": [
        {
          "indexed": true,
          "internalType": "address",
          "name": "owner",
          "type": "address"
        },
        {
          "indexed": true,
          "internalType": "address",
          "name": "approved",
          "type": "address"
        },
        {
          "indexed": true,
          "internalType": "uint256",
          "name": "tokenId",
          "type": "uint256"
        }
      ],
      "name": "Approval",
      "type": "event"
    },
    {
      "anonymous": false,
      "inputs": [
        {
          "indexed": true,
          "internalType": "address",
          "name": "owner",
          "type": "address"
        },
        {
          "indexed": true,
          "internalType": "address",
          "name": "operator",
          "type": "address"
        },
        {
          "indexed": false,
          "internalType": "bool",
          "name": "approved",
          "type": "bool"
        }
      ],
      "name": "ApprovalForAll",
      "type": "event"
    },
    {
      "anonymous": false,
      "inputs": [
        {
          "indexed": true,
          "internalType": "uint256",
          "name": "tokenId",
          "type": "uint256"
        },
        {
          "indexed": false,
          "internalType": "address",
          "name": "seller",
          "type": "address"
        },
        {
          "indexed": false,
          "internalType": "address",
          "name": "owner",
          "type": "address"
        },
        {
          "indexed": false,
          "internalType": "uint256",
          "name": "price",
          "type": "uint256"
        },
        {
          "indexed": false,
          "internalType": "bool",
          "name": "recycled",
          "type": "bool"
        }
      ],
      "name": "MarketItemCreated",
      "type": "event"
    },
    {
      "anonymous": false,
      "inputs": [
        {
          "indexed": true,
          "internalType": "address",
          "name": "from",
          "type": "address"
        },
        {
          "indexed": true,
          "internalType": "address",
          "name": "to",
          "type": "address"
        },
        {
          "indexed": true,
          "internalType": "uint256",
          "name": "tokenId",
          "type": "uint256"
        }
      ],
      "name": "Transfer",
      "type": "event"
    },
    {
      "inputs": [
        {
          "internalType": "address",
          "name": "to",
          "type": "address"
        },
        {
          "internalType": "uint256",
          "name": "tokenId",
          "type": "uint256"
        }
      ],
      "name": "approve",
      "outputs": [],
      "stateMutability": "nonpayable",
      "type": "function"
    },
    {
      "inputs": [
        {
          "internalType": "address",
          "name": "owner",
          "type": "address"
        }
      ],
      "name": "balanceOf",
      "outputs": [
        {
          "internalType": "uint256",
          "name": "",
          "type": "uint256"
        }
      ],
      "stateMutability": "view",
      "type": "function"
    },
    {
      "inputs": [
        {
          "internalType": "uint256",
          "name": "tokenId",
          "type": "uint256"
        }
      ],
      "name": "createMarketSale",
      "outputs": [],
      "stateMutability": "payable",
      "type": "function"
    },
    {
      "inputs": [
        {
          "internalType": "string",
          "name": "tokenURI",
          "type": "string"
        },
        {
          "internalType": "uint256",
          "name": "price",
          "type": "uint256"
        }
      ],
      "name": "createToken",
      "outputs": [
        {
          "internalType": "uint256",
          "name": "",
          "type": "uint256"
        }
      ],
      "stateMutability": "payable",
      "type": "function"
    },
    {
      "inputs": [],
      "name": "fetchItemsListed",
      "outputs": [
        {
          "components": [
            {
              "internalType": "uint256",
              "name": "tokenId",
              "type": "uint256"
            },
            {
              "internalType": "address payable",
              "name": "seller",
              "type": "address"
            },
            {
              "internalType": "address payable",
              "name": "owner",
              "type": "address"
            },
            {
              "internalType": "uint256",
              "name": "price",
              "type": "uint256"
            },
            {
              "internalType": "bool",
              "name": "recycled",
              "type": "bool"
            }
          ],
          "internalType": "struct Waste.MarketItem[]",
          "name": "",
          "type": "tuple[]"
        }
      ],
      "stateMutability": "view",
      "type": "function"
    },
    {
      "inputs": [],
      "name": "fetchMarketItems",
      "outputs": [
        {
          "components": [
            {
              "internalType": "uint256",
              "name": "tokenId",
              "type": "uint256"
            },
            {
              "internalType": "address payable",
              "name": "seller",
              "type": "address"
            },
            {
              "internalType": "address payable",
              "name": "owner",
              "type": "address"
            },
            {
              "internalType": "uint256",
              "name": "price",
              "type": "uint256"
            },
            {
              "internalType": "bool",
              "name": "recycled",
              "type": "bool"
            }
          ],
          "internalType": "struct Waste.MarketItem[]",
          "name": "",
          "type": "tuple[]"
        }
      ],
      "stateMutability": "view",
      "type": "function"
    },
    {
      "inputs": [],
      "name": "fetchMyNFTs",
      "outputs": [
        {
          "components": [
            {
              "internalType": "uint256",
              "name": "tokenId",
              "type": "uint256"
            },
            {
              "internalType": "address payable",
              "name": "seller",
              "type": "address"
            },
            {
              "internalType": "address payable",
              "name": "owner",
              "type": "address"
            },
            {
              "internalType": "uint256",
              "name": "price",
              "type": "uint256"
            },
            {
              "internalType": "bool",
              "name": "recycled",
              "type": "bool"
            }
          ],
          "internalType": "struct Waste.MarketItem[]",
          "name": "",
          "type": "tuple[]"
        }
      ],
      "stateMutability": "view",
      "type": "function"
    },
    {
      "inputs": [
        {
          "internalType": "uint256",
          "name": "tokenId",
          "type": "uint256"
        }
      ],
      "name": "getApproved",
      "outputs": [
        {
          "internalType": "address",
          "name": "",
          "type": "address"
        }
      ],
      "stateMutability": "view",
      "type": "function"
    },
    {
      "inputs": [
        {
          "internalType": "address",
          "name": "owner",
          "type": "address"
        },
        {
          "internalType": "address",
          "name": "operator",
          "type": "address"
        }
      ],
      "name": "isApprovedForAll",
      "outputs": [
        {
          "internalType": "bool",
          "name": "",
          "type": "bool"
        }
      ],
      "stateMutability": "view",
      "type": "function"
    },
    {
      "inputs": [],
      "name": "name",
      "outputs": [
        {
          "internalType": "string",
          "name": "",
          "type": "string"
        }
      ],
      "stateMutability": "view",
      "type": "function"
    },
    {
      "inputs": [
        {
          "internalType": "uint256",
          "name": "tokenId",
          "type": "uint256"
        }
      ],
      "name": "ownerOf",
      "outputs": [
        {
          "internalType": "address",
          "name": "",
          "type": "address"
        }
      ],
      "stateMutability": "view",
      "type": "function"
    },
    {
      "inputs": [
        {
          "internalType": "address",
          "name": "from",
          "type": "address"
        },
        {
          "internalType": "address",
          "name": "to",
          "type": "address"
        },
        {
          "internalType": "uint256",
          "name": "tokenId",
          "type": "uint256"
        }
      ],
      "name": "safeTransferFrom",
      "outputs": [],
      "stateMutability": "nonpayable",
      "type": "function"
    },
    {
      "inputs": [
        {
          "internalType": "address",
          "name": "from",
          "type": "address"
        },
        {
          "internalType": "address",
          "name": "to",
          "type": "address"
        },
        {
          "internalType": "uint256",
          "name": "tokenId",
          "type": "uint256"
        },
        {
          "internalType": "bytes",
          "name": "_data",
          "type": "bytes"
        }
      ],
      "name": "safeTransferFrom",
      "outputs": [],
      "stateMutability": "nonpayable",
      "type": "function"
    },
    {
      "inputs": [
        {
          "internalType": "address",
          "name": "operator",
          "type": "address"
        },
        {
          "internalType": "bool",
          "name": "approved",
          "type": "bool"
        }
      ],
      "name": "setApprovalForAll",
      "outputs": [],
      "stateMutability": "nonpayable",
      "type": "function"
    },
    {
      "inputs": [
        {
          "internalType": "bytes4",
          "name": "interfaceId",
          "type": "bytes4"
        }
      ],
      "name": "supportsInterface",
      "outputs": [
        {
          "internalType": "bool",
          "name": "",
          "type": "bool"
        }
      ],
      "stateMutability": "view",
      "type": "function"
    },
    {
      "inputs": [],
      "name": "symbol",
      "outputs": [
        {
          "internalType": "string",
          "name": "",
          "type": "string"
        }
      ],
      "stateMutability": "view",
      "type": "function"
    },
    {
      "inputs": [
        {
          "internalType": "uint256",
          "name": "tokenId",
          "type": "uint256"
        }
      ],
      "name": "tokenURI",
      "outputs": [
        {
          "internalType": "string",
          "name": "",
          "type": "string"
        }
      ],
      "stateMutability": "view",
      "type": "function"
    },
    {
      "inputs": [
        {
          "internalType": "address",
          "name": "from",
          "type": "address"
        },
        {
          "internalType": "address",
          "name": "to",
          "type": "address"
        },
        {
          "internalType": "uint256",
          "name": "tokenId",
          "type": "uint256"
        }
      ],
      "name": "transferFrom",
      "outputs": [],
      "stateMutability": "nonpayable",
      "type": "function"
    }
  ],
  "bytecode": "0x60806040523480156200001157600080fd5b506040805180820182526009815268149958de58db185b9d60ba1b6020808301918252835180850190945260048452635245435960e01b9084015281519192916200005f9160009162000090565b5080516200007590600190602084019062000090565b5050600980546001600160a01b031916331790555062000173565b8280546200009e9062000136565b90600052602060002090601f016020900481019282620000c257600085556200010d565b82601f10620000dd57805160ff19168380011785556200010d565b828001600101855582156200010d579182015b828111156200010d578251825591602001919060010190620000f0565b506200011b9291506200011f565b5090565b5b808211156200011b576000815560010162000120565b600181811c908216806200014b57607f821691505b602082108114156200016d57634e487b7160e01b600052602260045260246000fd5b50919050565b611fed80620001836000396000f3fe6080604052600436106101095760003560e01c80636352211e11610095578063a22cb46511610064578063a22cb465146102c1578063b88d4fde146102e1578063be9af53614610301578063c87b56dd14610314578063e985e9c51461033457600080fd5b80636352211e1461024b57806370a082311461026b57806372b3b6201461029957806395d89b41146102ac57600080fd5b80630f08efe0116100dc5780630f08efe0146101bf578063202e3740146101e157806323b872dd146101f657806342842e0e1461021657806345f8fa801461023657600080fd5b806301ffc9a71461010e57806306fdde0314610143578063081812fc14610165578063095ea7b31461019d575b600080fd5b34801561011a57600080fd5b5061012e610129366004611a12565b61037d565b60405190151581526020015b60405180910390f35b34801561014f57600080fd5b506101586103cf565b60405161013a9190611a87565b34801561017157600080fd5b50610185610180366004611a9a565b610461565b6040516001600160a01b03909116815260200161013a565b3480156101a957600080fd5b506101bd6101b8366004611acf565b6104ee565b005b3480156101cb57600080fd5b506101d4610604565b60405161013a9190611af9565b3480156101ed57600080fd5b506101d461079c565b34801561020257600080fd5b506101bd610211366004611b75565b610972565b34801561022257600080fd5b506101bd610231366004611b75565b6109a3565b34801561024257600080fd5b506101d46109be565b34801561025757600080fd5b50610185610266366004611a9a565b610b94565b34801561027757600080fd5b5061028b610286366004611bb1565b610c0b565b60405190815260200161013a565b61028b6102a7366004611c58565b610c92565b3480156102b857600080fd5b50610158610cd4565b3480156102cd57600080fd5b506101bd6102dc366004611cb1565b610ce3565b3480156102ed57600080fd5b506101bd6102fc366004611ced565b610cf2565b6101bd61030f366004611a9a565b610d2a565b34801561032057600080fd5b5061015861032f366004611a9a565b610e52565b34801561034057600080fd5b5061012e61034f366004611d69565b6001600160a01b03918216600090815260056020908152604080832093909416825291909152205460ff1690565b60006001600160e01b031982166380ac58cd60e01b14806103ae57506001600160e01b03198216635b5e139f60e01b145b806103c957506301ffc9a760e01b6001600160e01b03198316145b92915050565b6060600080546103de90611d9c565b80601f016020809104026020016040519081016040528092919081815260200182805461040a90611d9c565b80156104575780601f1061042c57610100808354040283529160200191610457565b820191906000526020600020905b81548152906001019060200180831161043a57829003601f168201915b5050505050905090565b600061046c82610fc9565b6104d25760405162461bcd60e51b815260206004820152602c60248201527f4552433732313a20617070726f76656420717565727920666f72206e6f6e657860448201526b34b9ba32b73a103a37b5b2b760a11b60648201526084015b60405180910390fd5b506000908152600460205260409020546001600160a01b031690565b60006104f982610b94565b9050806001600160a01b0316836001600160a01b031614156105675760405162461bcd60e51b815260206004820152602160248201527f4552433732313a20617070726f76616c20746f2063757272656e74206f776e656044820152603960f91b60648201526084016104c9565b336001600160a01b03821614806105835750610583813361034f565b6105f55760405162461bcd60e51b815260206004820152603860248201527f4552433732313a20617070726f76652063616c6c6572206973206e6f74206f7760448201527f6e6572206e6f7220617070726f76656420666f7220616c6c000000000000000060648201526084016104c9565b6105ff8383610fe6565b505050565b6060600061061160075490565b9050600061061e60085490565b60075461062b9190611ded565b90506000808267ffffffffffffffff81111561064957610649611bcc565b6040519080825280602002602001820160405280156106a257816020015b6040805160a0810182526000808252602080830182905292820181905260608201819052608082015282526000199092019101816106675790505b50905060005b848110156107935730600a60006106c0846001611e04565b81526020810191909152604001600020600201546001600160a01b031614156107815760006106f0826001611e04565b6000818152600a6020908152604091829020825160a0810184528154815260018201546001600160a01b039081169382019390935260028201549092169282019290925260038201546060820152600482015460ff16151560808201528551929350909185908790811061076657610766611e1c565b602090810291909101015261077c600186611e04565b945050505b8061078b81611e32565b9150506106a8565b50949350505050565b606060006107a960075490565b905060008060005b8381101561080c5733600a60006107c9846001611e04565b81526020810191909152604001600020600201546001600160a01b031614156107fa576107f7600184611e04565b92505b8061080481611e32565b9150506107b1565b5060008267ffffffffffffffff81111561082857610828611bcc565b60405190808252806020026020018201604052801561088157816020015b6040805160a0810182526000808252602080830182905292820181905260608201819052608082015282526000199092019101816108465790505b50905060005b848110156107935733600a600061089f846001611e04565b81526020810191909152604001600020600201546001600160a01b031614156109605760006108cf826001611e04565b6000818152600a6020908152604091829020825160a0810184528154815260018201546001600160a01b039081169382019390935260028201549092169282019290925260038201546060820152600482015460ff16151560808201528551929350909185908790811061094557610945611e1c565b602090810291909101015261095b600186611e04565b945050505b8061096a81611e32565b915050610887565b61097c3382611054565b6109985760405162461bcd60e51b81526004016104c990611e4d565b6105ff83838361113d565b6105ff83838360405180602001604052806000815250610cf2565b606060006109cb60075490565b905060008060005b83811015610a2e5733600a60006109eb846001611e04565b81526020810191909152604001600020600101546001600160a01b03161415610a1c57610a19600184611e04565b92505b80610a2681611e32565b9150506109d3565b5060008267ffffffffffffffff811115610a4a57610a4a611bcc565b604051908082528060200260200182016040528015610aa357816020015b6040805160a081018252600080825260208083018290529282018190526060820181905260808201528252600019909201910181610a685790505b50905060005b848110156107935733600a6000610ac1846001611e04565b81526020810191909152604001600020600101546001600160a01b03161415610b82576000610af1826001611e04565b6000818152600a6020908152604091829020825160a0810184528154815260018201546001600160a01b039081169382019390935260028201549092169282019290925260038201546060820152600482015460ff161515608082015285519293509091859087908110610b6757610b67611e1c565b6020908102919091010152610b7d600186611e04565b945050505b80610b8c81611e32565b915050610aa9565b6000818152600260205260408120546001600160a01b0316806103c95760405162461bcd60e51b815260206004820152602960248201527f4552433732313a206f776e657220717565727920666f72206e6f6e657869737460448201526832b73a103a37b5b2b760b91b60648201526084016104c9565b60006001600160a01b038216610c765760405162461bcd60e51b815260206004820152602a60248201527f4552433732313a2062616c616e636520717565727920666f7220746865207a65604482015269726f206164647265737360b01b60648201526084016104c9565b506001600160a01b031660009081526003602052604090205490565b6000610ca2600780546001019055565b6000610cad60075490565b9050610cb933826112d9565b610cc3818561140c565b610ccd8184611497565b9392505050565b6060600180546103de90611d9c565b610cee33838361157c565b5050565b610cfc3383611054565b610d185760405162461bcd60e51b81526004016104c990611e4d565b610d248484848461164b565b50505050565b6000818152600a6020526040902060038101546001909101546001600160a01b0316348214610dc3576040805162461bcd60e51b81526020600482015260248101919091527f506c65617365207375626d6974207468652061736b696e67207072696365206960448201527f6e206f7264657220746f20636f6d706c6574652074686520707572636861736560648201526084016104c9565b6000838152600a602052604090206002810180546001600160a01b0319908116331790915560048201805460ff1916600190811790915590910180549091169055610e12600880546001019055565b610e1d30338561113d565b6040516001600160a01b038216903480156108fc02916000818181858888f19350505050158015610d24573d6000803e3d6000fd5b6060610e5d82610fc9565b610ec35760405162461bcd60e51b815260206004820152603160248201527f45524337323155524953746f726167653a2055524920717565727920666f72206044820152703737b732bc34b9ba32b73a103a37b5b2b760791b60648201526084016104c9565b60008281526006602052604081208054610edc90611d9c565b80601f0160208091040260200160405190810160405280929190818152602001828054610f0890611d9c565b8015610f555780601f10610f2a57610100808354040283529160200191610f55565b820191906000526020600020905b815481529060010190602001808311610f3857829003601f168201915b505050505090506000610f7360408051602081019091526000815290565b9050805160001415610f86575092915050565b815115610fb8578082604051602001610fa0929190611e9e565b60405160208183030381529060405292505050919050565b610fc18461167e565b949350505050565b6000908152600260205260409020546001600160a01b0316151590565b600081815260046020526040902080546001600160a01b0319166001600160a01b038416908117909155819061101b82610b94565b6001600160a01b03167f8c5be1e5ebec7d5bd14f71427d1e84f3dd0314c0f7b2291e5b200ac8c7c3b92560405160405180910390a45050565b600061105f82610fc9565b6110c05760405162461bcd60e51b815260206004820152602c60248201527f4552433732313a206f70657261746f7220717565727920666f72206e6f6e657860448201526b34b9ba32b73a103a37b5b2b760a11b60648201526084016104c9565b60006110cb83610b94565b9050806001600160a01b0316846001600160a01b0316148061111257506001600160a01b0380821660009081526005602090815260408083209388168352929052205460ff165b80610fc15750836001600160a01b031661112b84610461565b6001600160a01b031614949350505050565b826001600160a01b031661115082610b94565b6001600160a01b0316146111b45760405162461bcd60e51b815260206004820152602560248201527f4552433732313a207472616e736665722066726f6d20696e636f72726563742060448201526437bbb732b960d91b60648201526084016104c9565b6001600160a01b0382166112165760405162461bcd60e51b8152602060048201526024808201527f4552433732313a207472616e7366657220746f20746865207a65726f206164646044820152637265737360e01b60648201526084016104c9565b611221600082610fe6565b6001600160a01b038316600090815260036020526040812080546001929061124a908490611ded565b90915550506001600160a01b0382166000908152600360205260408120805460019290611278908490611e04565b909155505060008181526002602052604080822080546001600160a01b0319166001600160a01b0386811691821790925591518493918716917fddf252ad1be2c89b69c2b068fc378daa952ba7f163c4a11628f55a4df523b3ef91a4505050565b6001600160a01b03821661132f5760405162461bcd60e51b815260206004820181905260248201527f4552433732313a206d696e7420746f20746865207a65726f206164647265737360448201526064016104c9565b61133881610fc9565b156113855760405162461bcd60e51b815260206004820152601c60248201527f4552433732313a20746f6b656e20616c7265616479206d696e7465640000000060448201526064016104c9565b6001600160a01b03821660009081526003602052604081208054600192906113ae908490611e04565b909155505060008181526002602052604080822080546001600160a01b0319166001600160a01b03861690811790915590518392907fddf252ad1be2c89b69c2b068fc378daa952ba7f163c4a11628f55a4df523b3ef908290a45050565b61141582610fc9565b6114785760405162461bcd60e51b815260206004820152602e60248201527f45524337323155524953746f726167653a2055524920736574206f66206e6f6e60448201526d32bc34b9ba32b73a103a37b5b2b760911b60648201526084016104c9565b600082815260066020908152604090912082516105ff92840190611960565b6040805160a08101825283815233602080830182815230848601818152606086018881526000608088018181528b8252600a909652979097209551865591516001860180546001600160a01b03199081166001600160a01b0393841617909155925160028701805490941691161790915593516003840155516004909201805460ff19169215159290921790915561152f918461113d565b604080513381523060208201529081018290526000606082015282907fb640004f1d14576d0c209e240cad0410e0d8c0c33a09375861fbadae2588a98d9060800160405180910390a25050565b816001600160a01b0316836001600160a01b031614156115de5760405162461bcd60e51b815260206004820152601960248201527f4552433732313a20617070726f766520746f2063616c6c65720000000000000060448201526064016104c9565b6001600160a01b03838116600081815260056020908152604080832094871680845294825291829020805460ff191686151590811790915591519182527f17307eab39ab6107e8899845ad3d59bd9653f200f220920489ca2b5937696c31910160405180910390a3505050565b61165684848461113d565b61166284848484611755565b610d245760405162461bcd60e51b81526004016104c990611ecd565b606061168982610fc9565b6116ed5760405162461bcd60e51b815260206004820152602f60248201527f4552433732314d657461646174613a2055524920717565727920666f72206e6f60448201526e3732bc34b9ba32b73a103a37b5b2b760891b60648201526084016104c9565b600061170460408051602081019091526000815290565b905060008151116117245760405180602001604052806000815250610ccd565b8061172e84611862565b60405160200161173f929190611e9e565b6040516020818303038152906040529392505050565b60006001600160a01b0384163b1561185757604051630a85bd0160e11b81526001600160a01b0385169063150b7a0290611799903390899088908890600401611f1f565b602060405180830381600087803b1580156117b357600080fd5b505af19250505080156117e3575060408051601f3d908101601f191682019092526117e091810190611f5c565b60015b61183d573d808015611811576040519150601f19603f3d011682016040523d82523d6000602084013e611816565b606091505b5080516118355760405162461bcd60e51b81526004016104c990611ecd565b805181602001fd5b6001600160e01b031916630a85bd0160e11b149050610fc1565b506001949350505050565b6060816118865750506040805180820190915260018152600360fc1b602082015290565b8160005b81156118b0578061189a81611e32565b91506118a99050600a83611f8f565b915061188a565b60008167ffffffffffffffff8111156118cb576118cb611bcc565b6040519080825280601f01601f1916602001820160405280156118f5576020820181803683370190505b5090505b8415610fc15761190a600183611ded565b9150611917600a86611fa3565b611922906030611e04565b60f81b81838151811061193757611937611e1c565b60200101906001600160f81b031916908160001a905350611959600a86611f8f565b94506118f9565b82805461196c90611d9c565b90600052602060002090601f01602090048101928261198e57600085556119d4565b82601f106119a757805160ff19168380011785556119d4565b828001600101855582156119d4579182015b828111156119d45782518255916020019190600101906119b9565b506119e09291506119e4565b5090565b5b808211156119e057600081556001016119e5565b6001600160e01b031981168114611a0f57600080fd5b50565b600060208284031215611a2457600080fd5b8135610ccd816119f9565b60005b83811015611a4a578181015183820152602001611a32565b83811115610d245750506000910152565b60008151808452611a73816020860160208601611a2f565b601f01601f19169290920160200192915050565b602081526000610ccd6020830184611a5b565b600060208284031215611aac57600080fd5b5035919050565b80356001600160a01b0381168114611aca57600080fd5b919050565b60008060408385031215611ae257600080fd5b611aeb83611ab3565b946020939093013593505050565b602080825282518282018190526000919060409081850190868401855b82811015611b6857815180518552868101516001600160a01b03908116888701528682015116868601526060808201519086015260809081015115159085015260a09093019290850190600101611b16565b5091979650505050505050565b600080600060608486031215611b8a57600080fd5b611b9384611ab3565b9250611ba160208501611ab3565b9150604084013590509250925092565b600060208284031215611bc357600080fd5b610ccd82611ab3565b634e487b7160e01b600052604160045260246000fd5b600067ffffffffffffffff80841115611bfd57611bfd611bcc565b604051601f8501601f19908116603f01168101908282118183101715611c2557611c25611bcc565b81604052809350858152868686011115611c3e57600080fd5b858560208301376000602087830101525050509392505050565b60008060408385031215611c6b57600080fd5b823567ffffffffffffffff811115611c8257600080fd5b8301601f81018513611c9357600080fd5b611ca285823560208401611be2565b95602094909401359450505050565b60008060408385031215611cc457600080fd5b611ccd83611ab3565b915060208301358015158114611ce257600080fd5b809150509250929050565b60008060008060808587031215611d0357600080fd5b611d0c85611ab3565b9350611d1a60208601611ab3565b925060408501359150606085013567ffffffffffffffff811115611d3d57600080fd5b8501601f81018713611d4e57600080fd5b611d5d87823560208401611be2565b91505092959194509250565b60008060408385031215611d7c57600080fd5b611d8583611ab3565b9150611d9360208401611ab3565b90509250929050565b600181811c90821680611db057607f821691505b60208210811415611dd157634e487b7160e01b600052602260045260246000fd5b50919050565b634e487b7160e01b600052601160045260246000fd5b600082821015611dff57611dff611dd7565b500390565b60008219821115611e1757611e17611dd7565b500190565b634e487b7160e01b600052603260045260246000fd5b6000600019821415611e4657611e46611dd7565b5060010190565b60208082526031908201527f4552433732313a207472616e736665722063616c6c6572206973206e6f74206f6040820152701ddb995c881b9bdc88185c1c1c9bdd9959607a1b606082015260800190565b60008351611eb0818460208801611a2f565b835190830190611ec4818360208801611a2f565b01949350505050565b60208082526032908201527f4552433732313a207472616e7366657220746f206e6f6e20455243373231526560408201527131b2b4bb32b91034b6b83632b6b2b73a32b960711b606082015260800190565b6001600160a01b0385811682528416602082015260408101839052608060608201819052600090611f5290830184611a5b565b9695505050505050565b600060208284031215611f6e57600080fd5b8151610ccd816119f9565b634e487b7160e01b600052601260045260246000fd5b600082611f9e57611f9e611f79565b500490565b600082611fb257611fb2611f79565b50069056fea2646970667358221220424b18f54d333f373b73cf6281dd95f73c2f6f1e2b7c90955c9a565d44e373fa64736f6c63430008090033",
  "linkReferences": {},
  "deployedLinkReferences": {}
}